:020000040000FA
:0400000082EF03F098
:100200000001400100737465700A004E6F20720097
:07021000723A00773A00008A
:10021800BEEC03F0660E016E070E026ED7EC03F01B
:10022800C68A040E18EC02F00B0E176E260E166E18
:100238005E0EE82EFED7162EFCD7172EFAD7000E24
:10024800CFEC02F00B0E176E260E166E5E0EE82E21
:10025800FED7162EFCD7172EFAD7080E18EC02F088
:100268000B0E176E260E166E5E0EE82EFED7162E95
:10027800FCD7172EFAD7000ECFEC02F00B0E176E34
:10028800260E166E5E0EE82EFED7162EFCD7172EFB
:10029800FAD7010E55EC03F00B0E176E260E166EEC
:1002A8005E0EE82EFED7162EFCD7172EFAD7000EB4
:1002B80055EC03F00B0E176E260E166E5E0EE82E2A
:1002C800FED7162EFCD7172EFAD7000E196E000E81
:1002D800186E8A881A0E166EF80EE82EFED7162E9D
:1002E800FCD700D08A981A0E166EF80EE82EFED7A4
:1002F800162EFCD700D0050E026E020E036E0CEC13
:1003080003F0184A192A19BE93EF01F0195009E1B0
:10031800C80E185CD8A093EF01F095EF01F06DEFCF
:1003280001F015EF01F000EF00F0036E02D8A8EF1E
:1003380001F00500FA6E1A50FD6E1B50FE6EF85063
:10034800FF6EFA50300E120002D8B6EF01F0050029
:10035800FA6E1A50FD6E1B50FE6EF850FF6EFA5082
:10036800780E120003C002F0023A0F0E02160F0EAA
:100378000216090E0264C3EF01F0C5EF01F0D8EFD1
:1003880001F002D8D6EF01F00500FA6E1A50FD6EA2
:100398001B50FE6EF850FF6EFA5003380F0B0F0B10
:1003A800370F1200E9EF01F002D8E9EF01F005007C
:1003B800FA6E1A50FD6E1B50FE6EF850FF6EFA5022
:1003C80003380F0B0F0B300F120003C002F00F0E93
:1003D8000216090E0264F3EF01F0F5EF01F007EFE2
:1003E80002F002D805EF02F00500FA6E1A50FD6E11
:1003F8001B50FE6EF850FF6EFA5003500F0B370F6C
:10040800120017EF02F002D817EF02F00500FA6E9B
:100418001A50FD6E1B50FE6EF850FF6EFA500350D6
:100428000F0B300F12001200146E41EF02F000F0B3
:1004380000F000F0000E156E66EF02F000F000F01C
:1004480000F0010E156E66EF02F000F000F000F00B
:10045800020E156E66EF02F000F000F000F0030ED9
:10046800156E66EF02F000F000F000F0040E156E55
:1004780066EF02F08B928BEF02F014500E6E0F6A4B
:100488000F50000AD8B44BEF02F03EEF02F00E50C6
:10049800000AD8B43EEF02F0010AD8B41BEF02F00C
:1004A800030AD8B422EF02F0060AD8B429EF02F002
:1004B8000C0AD8B430EF02F0180AD8B437EF02F0BB
:1004C8003EEF02F015500E6E0F6AD8900E360F36BA
:1004D800D8900E360F36D8900E360F36870E106E1F
:1004E8000F0E116E25C012F026C013F01050121610
:1004F800115013160E501210256E0F501310266E41
:1005080025C006F026C007F0000E8CEC02F01200A1
:100518000A6E0A50070B0B6EFF0E06140C6E0F0EB8
:1005280007140D6E8B840CC008F00DC009F009C0CB
:1005380008F0096A0B38F00B0810EBEC03F00C50CC
:10054800EBEC03F08B94130E026E020E036E0CECB0
:1005580003F0090E96EC03F00CC008F00DC009F08A
:1005680009C008F0096A0B38F00B081099EC01F083
:10057800090E96EC03F00C5099EC01F0090E96EC7C
:1005880003F00B0E026E020E036E0CEC03F00A0E63
:1005980096EC03F01200066E06500809076E8B846D
:1005A8000738F00BF00BA6EC03F0236E000EA6EC58
:1005B80003F0226E8B94130E026E020E036E0CEC87
:1005C80003F0090E96EC03F00738F00BF00B99ECEA
:1005D80001F0090E96EC03F0000E99EC01F0090EFB
:1005E80096EC03F0100E026E020E036E0CEC03F094
:1005F800090E96EC03F0235099EC01F0090E96ECE5
:1006080003F0235099EC01F00A0E96EC03F0120067
:1006180002C004F003C005F027EF03F002D825EF6D
:1006280003F00500FA6E1A50FD6E1B50FE6EF8506E
:10063800FF6EFA5004C0F6FF05C0F7FF0800F5503A
:100648001200044A052A04C0F6FF05C0F7FF080097
:10065800F5500009D8A433EF03F035EF03F012EF9B
:1006680003F01200080E706E800E716E240E726E0A
:10067800CF0E756E000E766E000E016E000E026EC5
:10068800E1EC03F0000E016E000E026EDCEC03F0EC
:10069800000E016E000E026EE6EC03F0000E246EF2
:1006A80012000E6E0E50D8B45CEF03F05EEF03F04C
:1006B80062EF03F025908B9264EF03F025808B8224
:1006C80025C006F026C007F0000E8CEC02F01200E0
:1006D800000E896E300E8A6E000E8B6E92688F0E39
:1006E800936ED10E946EC00E0F013A6F0F0E396FD4
:1006F8002F0E386F000E616EF18E1200DE0EF66E50
:10070800070EF76E000EF86E0900F5CF25F0090008
:10071800F5CF26F0246A236A226A000EF86E0001DB
:100728000CEF01F0026E02D8A5EF03F00500FA6E97
:100738001A50FD6E1B50FE6EF850FF6EFA500250B4
:1007480012001200016E01C0C9FF9EA6AEEF03F0B1
:10075800B0EF03F0A9EF03F09E96C9501200016EA6
:10076800A4A8B9EF03F0BBEF03F0B4EF03F001C0A6
:1007780073FF1200C7EC03F06CEC03F0D0EC03F04D
:1007880036EC03F01200400EC76E010EC66E010E65
:10079800C86E9496C69A1200620ED36E040ED26E7C
:1007A800000E9B6E120001C01AF002C01BF012006E
:1007B80001C01EF002C01FF0120001C020F002C0EC
:1007C80021F0120001C01CF002C01DF01200016EE1
:0807D80001C0C9FF1200100C62
:020000040020DA
:08000000FFFFFFFFFFFFFFFF00
:020000040030CA
:0E000000FF281F3CFFBF85FF03C003E0034045
:00000001FF
